{
  "contractName": "LIFE",
  "abi": [
    {
      "anonymous": false,
      "inputs": [
        {
          "indexed": false,
          "internalType": "uint256",
          "name": "id",
          "type": "uint256"
        },
        {
          "indexed": false,
          "internalType": "uint256",
          "name": "drugId",
          "type": "uint256"
        },
        {
          "indexed": false,
          "internalType": "string",
          "name": "drugName",
          "type": "string"
        },
        {
          "indexed": false,
          "internalType": "uint256",
          "name": "buyerId",
          "type": "uint256"
        },
        {
          "indexed": false,
          "internalType": "string",
          "name": "buyerName",
          "type": "string"
        },
        {
          "indexed": false,
          "internalType": "uint256",
          "name": "sellerId",
          "type": "uint256"
        },
        {
          "indexed": false,
          "internalType": "string",
          "name": "sellerName",
          "type": "string"
        },
        {
          "indexed": false,
          "internalType": "uint256",
          "name": "userType",
          "type": "uint256"
        },
        {
          "indexed": false,
          "internalType": "uint256",
          "name": "quantity",
          "type": "uint256"
        },
        {
          "indexed": false,
          "internalType": "address",
          "name": "transactionAddedBy",
          "type": "address"
        }
      ],
      "name": "transactionInfo",
      "type": "event"
    },
    {
      "constant": true,
      "inputs": [],
      "name": "blockHashNow",
      "outputs": [
        {
          "internalType": "bytes32",
          "name": "",
          "type": "bytes32"
        }
      ],
      "payable": false,
      "stateMutability": "view",
      "type": "function"
    },
    {
      "constant": true,
      "inputs": [],
      "name": "blockHashPrevious",
      "outputs": [
        {
          "internalType": "bytes32",
          "name": "",
          "type": "bytes32"
        }
      ],
      "payable": false,
      "stateMutability": "view",
      "type": "function"
    },
    {
      "constant": true,
      "inputs": [],
      "name": "blockNumber",
      "outputs": [
        {
          "internalType": "uint256",
          "name": "",
          "type": "uint256"
        }
      ],
      "payable": false,
      "stateMutability": "view",
      "type": "function"
    },
    {
      "constant": true,
      "inputs": [],
      "name": "transactionId",
      "outputs": [
        {
          "internalType": "uint256",
          "name": "",
          "type": "uint256"
        }
      ],
      "payable": false,
      "stateMutability": "view",
      "type": "function"
    },
    {
      "constant": true,
      "inputs": [
        {
          "internalType": "uint256",
          "name": "",
          "type": "uint256"
        }
      ],
      "name": "transactionsArr",
      "outputs": [
        {
          "internalType": "uint256",
          "name": "",
          "type": "uint256"
        }
      ],
      "payable": false,
      "stateMutability": "view",
      "type": "function"
    },
    {
      "constant": false,
      "inputs": [],
      "name": "getTransactionId",
      "outputs": [
        {
          "internalType": "uint256",
          "name": "",
          "type": "uint256"
        }
      ],
      "payable": false,
      "stateMutability": "nonpayable",
      "type": "function"
    },
    {
      "constant": false,
      "inputs": [
        {
          "internalType": "uint256",
          "name": "_drugId",
          "type": "uint256"
        },
        {
          "internalType": "string",
          "name": "_drugName",
          "type": "string"
        },
        {
          "internalType": "uint256",
          "name": "_buyerId",
          "type": "uint256"
        },
        {
          "internalType": "string",
          "name": "_buyerName",
          "type": "string"
        },
        {
          "internalType": "uint256",
          "name": "_sellerId",
          "type": "uint256"
        },
        {
          "internalType": "string",
          "name": "_sellerName",
          "type": "string"
        },
        {
          "internalType": "uint256",
          "name": "_userType",
          "type": "uint256"
        },
        {
          "internalType": "uint256",
          "name": "_quantity",
          "type": "uint256"
        }
      ],
      "name": "setDrugTransaction",
      "outputs": [
        {
          "internalType": "uint256",
          "name": "",
          "type": "uint256"
        }
      ],
      "payable": false,
      "stateMutability": "nonpayable",
      "type": "function"
    },
    {
      "constant": true,
      "inputs": [
        {
          "internalType": "uint256",
          "name": "_id",
          "type": "uint256"
        }
      ],
      "name": "getTransactionDetails",
      "outputs": [
        {
          "internalType": "uint256",
          "name": "",
          "type": "uint256"
        },
        {
          "internalType": "string",
          "name": "",
          "type": "string"
        },
        {
          "internalType": "uint256",
          "name": "",
          "type": "uint256"
        },
        {
          "internalType": "uint256",
          "name": "",
          "type": "uint256"
        },
        {
          "internalType": "address",
          "name": "",
          "type": "address"
        }
      ],
      "payable": false,
      "stateMutability": "view",
      "type": "function"
    },
    {
      "constant": true,
      "inputs": [
        {
          "internalType": "uint256",
          "name": "_id",
          "type": "uint256"
        }
      ],
      "name": "getBuyerSellerDetails",
      "outputs": [
        {
          "internalType": "uint256",
          "name": "",
          "type": "uint256"
        },
        {
          "internalType": "string",
          "name": "",
          "type": "string"
        },
        {
          "internalType": "uint256",
          "name": "",
          "type": "uint256"
        },
        {
          "internalType": "string",
          "name": "",
          "type": "string"
        },
        {
          "internalType": "uint256",
          "name": "",
          "type": "uint256"
        },
        {
          "internalType": "bytes32",
          "name": "",
          "type": "bytes32"
        },
        {
          "internalType": "bytes32",
          "name": "",
          "type": "bytes32"
        }
      ],
      "payable": false,
      "stateMutability": "view",
      "type": "function"
    },
    {
      "constant": true,
      "inputs": [],
      "name": "countTransactions",
      "outputs": [
        {
          "internalType": "uint256",
          "name": "",
          "type": "uint256"
        }
      ],
      "payable": false,
      "stateMutability": "view",
      "type": "function"
    }
  ],
  "bytecode": "0x608060405243600455600454406005556001600454034060065533600360006101000a81548173ffffffffffffffffffffffffffffffffffffffff021916908373ffffffffffffffffffffffffffffffffffffffff160217905550610cdc806100696000396000f3fe608060405234801561001057600080fd5b506004361061009e5760003560e01c806357e871e71161006657806357e871e71461034657806370e35c11146103645780637e2f42e714610382578063debc5d4d146103a0578063f81fc230146105d05761009e565b80630fa3391a146100a35780630fa683d3146101d9578063149dfec2146102c85780632ddceb13146102e657806332d414dc14610328575b600080fd5b6100cf600480360360208110156100b957600080fd5b81019080803590602001909291905050506105ee565b604051808881526020018060200187815260200180602001868152602001858152602001848152602001838103835289818151815260200191508051906020019080838360005b83811015610131578082015181840152602081019050610116565b50505050905090810190601f16801561015e5780820380516001836020036101000a031916815260200191505b50838103825287818151815260200191508051906020019080838360005b8381101561019757808201518184015260208101905061017c565b50505050905090810190601f1680156101c45780820380516001836020036101000a031916815260200191505b50995050505050505050505060405180910390f35b610205600480360360208110156101ef57600080fd5b81019080803590602001909291905050506107af565b60405180868152602001806020018581526020018481526020018373ffffffffffffffffffffffffffffffffffffffff1673ffffffffffffffffffffffffffffffffffffffff168152602001828103825286818151815260200191508051906020019080838360005b8381101561028957808201518184015260208101905061026e565b50505050905090810190601f1680156102b65780820380516001836020036101000a031916815260200191505b50965050505050505060405180910390f35b6102d06108f9565b6040518082815260200191505060405180910390f35b610312600480360360208110156102fc57600080fd5b81019080803590602001909291905050506108ff565b6040518082815260200191505060405180910390f35b610330610920565b6040518082815260200191505060405180910390f35b61034e610937565b6040518082815260200191505060405180910390f35b61036c61093d565b6040518082815260200191505060405180910390f35b61038a610943565b6040518082815260200191505060405180910390f35b6105ba60048036036101008110156103b757600080fd5b8101908080359060200190929190803590602001906401000000008111156103de57600080fd5b8201836020820111156103f057600080fd5b8035906020019184600183028401116401000000008311171561041257600080fd5b91908080601f016020809104026020016040519081016040528093929190818152602001838380828437600081840152601f19601f820116905080830192505050505050509192919290803590602001909291908035906020019064010000000081111561047f57600080fd5b82018360208201111561049157600080fd5b803590602001918460018302840111640100000000831117156104b357600080fd5b91908080601f016020809104026020016040519081016040528093929190818152602001838380828437600081840152601f19601f820116905080830192505050505050509192919290803590602001909291908035906020019064010000000081111561052057600080fd5b82018360208201111561053257600080fd5b8035906020019184600183028401116401000000008311171561055457600080fd5b91908080601f016020809104026020016040519081016040528093929190818152602001838380828437600081840152601f19601f8201169050808301925050505050505091929192908035906020019092919080359060200190929190505050610949565b6040518082815260200191505060405180910390f35b6105d8610bf5565b6040518082815260200191505060405180910390f35b600060606000606060008060006001600089815260200190815260200160002060020154600160008a8152602001908152602001600020600301600160008b815260200190815260200160002060040154600160008c8152602001908152602001600020600501600454600554600654858054600181600116156101000203166002900480601f0160208091040260200160405190810160405280929190818152602001828054600181600116156101000203166002900480156106f35780601f106106c8576101008083540402835291602001916106f3565b820191906000526020600020905b8154815290600101906020018083116106d657829003601f168201915b50505050509550838054600181600116156101000203166002900480601f01602080910402602001604051908101604052809291908181526020018280546001816001161561010002031660029004801561078f5780601f106107645761010080835404028352916020019161078f565b820191906000526020600020905b81548152906001019060200180831161077257829003601f168201915b505050505093509650965096509650965096509650919395979092949650565b6000606060008060006001600087815260200190815260200160002060000154600160008881526020019081526020016000206001016001600089815260200190815260200160002060070154600160008a815260200190815260200160002060060154600160008b815260200190815260200160002060080160009054906101000a900473ffffffffffffffffffffffffffffffffffffffff16838054600181600116156101000203166002900480601f0160208091040260200160405190810160405280929190818152602001828054600181600116156101000203166002900480156108df5780601f106108b4576101008083540402835291602001916108df565b820191906000526020600020905b8154815290600101906020018083116108c257829003601f168201915b505050505093509450945094509450945091939590929450565b60055481565b6002818154811061090c57fe5b906000526020600020016000915090505481565b600080600081548092919060010191905055905090565b60045481565b60065481565b60005481565b6000600360009054906101000a900473ffffffffffffffffffffffffffffffffffffffff1673ffffffffffffffffffffffffffffffffffffffff163373ffffffffffffffffffffffffffffffffffffffff16146109a557600080fd5b82896000809050600080905060008090505b600280549050811015610a0b578360016000600284815481106109d657fe5b906000526020600020015481526020019081526020016000206000015414156109fe57600191505b80806001019150506109b7565b506001841415610a245780610a1f57600191505b610a30565b8015610a2f57600191505b5b81610a3a57600080fd5b8660048110610a4857600080fd5b6000610a52610920565b90508e60016000838152602001908152602001600020600001819055508d600160008381526020019081526020016000206001019080519060200190610a99929190610c02565b508c60016000838152602001908152602001600020600201819055508b600160008381526020019081526020016000206003019080519060200190610adf929190610c02565b508a600160008381526020019081526020016000206004018190555089600160008381526020019081526020016000206005019080519060200190610b25929190610c02565b50886001600083815260200190815260200160002060060181905550876001600083815260200190815260200160002060070181905550336001600083815260200190815260200160002060080160006101000a81548173ffffffffffffffffffffffffffffffffffffffff021916908373ffffffffffffffffffffffffffffffffffffffff160217905550600160028290806001815401808255809150509060018203906000526020600020016000909192909190915055505080965050505050505098975050505050505050565b6000600280549050905090565b828054600181600116156101000203166002900490600052602060002090601f016020900481019282601f10610c4357805160ff1916838001178555610c71565b82800160010185558215610c71579182015b82811115610c70578251825591602001919060010190610c55565b5b509050610c7e9190610c82565b5090565b610ca491905b80821115610ca0576000816000905550600101610c88565b5090565b9056fea265627a7a723158204c1dd476b23f7ad6b93683b5330f6ea287b341e0458e96df1bae3a46d93cedbe64736f6c63430005100032",
  "source": "pragma solidity >=0.4.21 <0.7.0;\n\ncontract TransModel {\n    uint public transactionId;\n\n    struct Transaction {\n        // uint id;\n        uint drugId;\n        string drugName;\n        uint buyerId;\n        string buyerName;\n        uint sellerId;\n        string sellerName;\n        uint userType;\n        uint quantity;\n        // string location_;\n        address transactionAddedBy;\n    }\n    \n    mapping (uint => Transaction) transactions;\n    uint[] public transactionsArr;\n}\n\ncontract Owned is TransModel {\n    address owner;\n    \n    \n    constructor() public {\n        owner = msg.sender;\n    }\n    \n   modifier onlyOwner {\n       require(msg.sender == owner);\n       _;\n   }\n   \n   modifier canAddTransactions (uint _userType) {\n       require(_userType < 4);\n       _;\n   }\n   \n   modifier onlyManufacturererCanAddNewDrugId(uint _userType, uint _drugId) {\n       \n       bool condition = false;\n       \n       bool drugIdExists = false;\n       for(uint i=0; i<transactionsArr.length; i++) {\n           if(transactions[transactionsArr[i]].drugId == _drugId) {\n               drugIdExists = true;\n           }\n       }\n       \n       if(_userType == 1){\n           if(!drugIdExists){\n               condition = true;\n           }\n       }\n       else{\n           if(drugIdExists){\n               condition = true;\n           }\n       }\n       \n       require(condition);\n       _;\n       \n   }\n   \n   modifier checkIntegrity(uint _userType, uint _drugId, uint _sellerId, uint _quantity) {\n       bool condition = false;\n       if(!(_userType == 1)){\n           \n           uint qty_final = 0;\n           for(uint i=0; i<transactionsArr.length; i++){\n               uint _dID = transactions[transactionsArr[i]].drugId;\n               \n               if(_drugId == _dID)\n                {\n                    uint _qty = transactions[transactionsArr[i]].quantity;\n                    uint sID = transactions[transactionsArr[i]].sellerId;\n                    uint bID = transactions[transactionsArr[i]].buyerId;\n                    if(sID == _sellerId){//you act as seller earlier so minus qty\n                        qty_final-= _qty;\n                    }\n                    \n                    if(bID == _sellerId){//you act as buyer earlier so add qty\n                        qty_final+= _qty;\n                    }\n                }\n           }\n           \n           if(qty_final >= _quantity){\n            condition=true;\n           }\n       }\n       else\n        condition=true;\n       require(condition);\n       _;\n   }\n   \n\n}\n\ncontract SeaPharma is Owned {\n    \n    uint public blockNumber = block.number;\n    bytes32 public blockHashNow = blockhash(blockNumber);\n    bytes32 public blockHashPrevious = blockhash(blockNumber - 1);\n\n    // struct Transaction {\n    //     uint id;\n    //     uint drugId;\n    //     string drugName;\n    //     uint buyerId;\n    //     string buyerName;\n    //     uint sellerId;\n    //     string sellerName;\n    //     string userType;\n    //     uint quantity;\n    //     string location_;\n    //     address transactionAddedBy;\n    // }\n    \n    // mapping (uint => Transaction) transactions;\n    // uint[] public transactionsArr;\n\n    event transactionInfo(\n        uint id,\n        uint drugId,\n        string drugName,\n        uint buyerId,\n        string buyerName,\n        uint sellerId,\n        string sellerName,\n        uint userType,\n        uint quantity,\n        // string location_,\n        address transactionAddedBy\n    );\n    \n    function getTransactionId() public returns (uint) {\n        return transactionId++;\n    }\n\n    \n    function setDrugTransaction(\n        uint _drugId, \n        string memory _drugName, \n        uint _buyerId, \n        string memory _buyerName, \n        uint _sellerId, \n        string memory _sellerName, \n        uint _userType, \n        uint _quantity) onlyOwner onlyManufacturererCanAddNewDrugId(_userType, _drugId) canAddTransactions(_userType) public returns(uint){\n        uint256 _id = getTransactionId();\n        // var transaction = transactions[_id];\n        \n        // transaction.id = _id;\n        transactions[_id].drugId = _drugId;\n        transactions[_id].drugName = _drugName;   \n        transactions[_id].buyerId = _buyerId;\n        transactions[_id].buyerName = _buyerName;\n        transactions[_id].sellerId = _sellerId;\n        transactions[_id].sellerName = _sellerName;\n        transactions[_id].userType = _userType;\n        transactions[_id].quantity = _quantity;\n        // transactions[_id].location_ = _location;\n        transactions[_id].transactionAddedBy = msg.sender;\n        \n        transactionsArr.push(_id) -1;\n\n        // transactionInfo(_id , _drugId, _drugName, _buyerId, _buyerName, _sellerId, _sellerName, _userType, _quantity, msg.sender);\n    \n        return _id;        \n    }\n    \n    //function getAllTransactions() view public returns(uint ) {\n        \n    //    return uint256[](transactionsArr);\n   // }\n    \n    function getTransactionDetails(uint _id) view public returns (uint, string memory, uint, uint, address) {\n        return (transactions[_id].drugId, transactions[_id].drugName, transactions[_id].quantity, transactions[_id].userType, transactions[_id].transactionAddedBy);\n    }\n    \n    function getBuyerSellerDetails(uint _id) view public returns (uint, string memory, uint, string memory, uint, bytes32, bytes32) {\n        \n        return (transactions[_id].buyerId, transactions[_id].buyerName, transactions[_id].sellerId, transactions[_id].sellerName, blockNumber, blockHashNow, blockHashPrevious);\n    }\n    \n    function countTransactions() view public returns (uint) {\n        return transactionsArr.length;\n    }\n    \n}\n    \n    ",
  "sourcePath": "/Users/aliasgarmerchant/Desktop/LIFE_4/contracts/LIFE.sol",
  "compiler": {
    "name": "solc",
    "version": "0.5.16+commit.9c3226ce.Emscripten.clang"
  },
  "schemaVersion": "3.0.23",
  "updatedAt": "2020-02-02T16:54:54.417Z",
  "networkType": "ethereum",
  "devdoc": {
    "methods": {}
  },
  "userdoc": {
    "methods": {}
  }
}